:100000000EC028C027C026C025C024C023C022C0DF
:1000100021C020C054C01EC01DC01CC01BC0112464
:100020001FBECFE5D2E0DEBFCDBF10E0A0E6B0E05E
:10003000EAE6F7E102C005900D92AA36B107D9F7BA
:1000400021E0AAE6B0E001C01D92A73CB207E1F7AB
:10005000B7D889CBD5CF369A3699FECF84B195B132
:10006000089580916A00811106C017B887E886B9A3
:1000700081E080936A000895F4DF87B1807F87B9BB
:10008000EACFEFDF87B1807F816087B9E4CFE9DF16
:1000900087B1807F826087B9DECFE3DF87B1807F61
:1000A000836087B9D8CFF89482E08ABD83E083BFAC
:1000B00089EF89BD89B7806189BF789408951F92BF
:1000C0000F920FB60F9211248F939F93AF93BF930C
:1000D00080916B0090916C00A0916D00B0916E00CA
:1000E0000196A11DB11D80936B0090936C00A093AD
:1000F0006D00B0936E00BF91AF919F918F910F9063
:100100000FBE0F901F901895F89460916B0070913E
:100110006C0080916D0090916E0078940895362F58
:100120008135910548F463E070E07BD8FC01E1592A
:10013000FF4F4083318322830895EFE6F0E0119270
:1001400081E0E236F807D9F70895B89AF6CFF89427
:10015000EFE6F0E022E631E0919188E097FF19C0E8
:10016000C09A000000000000000000000000C098DD
:10017000000000000000990F815081F72E173F0703
:1001800059F778948FEE90E00197F1F700C00000E6
:100190000895C09A000000000000C0980000000010
:1001A00000000000000000000000E5CF8091640026
:1001B000909165009C013695322F2227379527951F
:1001C00028273927C901892F992786952827392774
:1001D000922F88278227932790936500809364004D
:1001E0000895ABDF1092B9011092B8010895ADDF08
:1001F0001092BD011092BC0108959093BD018093AF
:10020000BC0108958091BC019091BD0108952F9289
:100210003F924F925F926F927F928F929F92AF9296
:10022000BF92CF92DF92EF92FF920F931F93CF93E3
:10023000DF93CDB7DEB7A3970FB6F894DEBF0FBE3E
:10024000CDBF8091BC019091BD012091BA01309148
:10025000BB01FC01319782179307D9F01092B901C5
:100260001092B8019093BB018093BA01EC30F10574
:1002700008F01DC7E35CFE4F099427C055C0ACC011
:10028000CAC05FC1C8C148C210C329C45EC482C409
:1002900045C5EC30F10508F00AC7E05BFE4F099454
:1002A0000BC042C099C0B7C04CC1B5C135C2FDC278
:1002B00016C44BC46FC432C58091B8019091B90186
:1002C00020E040E060E0C29718F420E040E06FEFEB
:1002D00090E080E024DF8091B8019091B90101960F
:1002E0009093B9018093B8018436910520F0109263
:1002F000B9011092B801A3960FB6F894DEBF0FBEF5
:10030000CDBFDF91CF911F910F91FF90EF90DF90C4
:10031000CF90BF90AF909F908F907F906F905F90A5
:100320004F903F902F9013CF10E000E081E5E82E32
:10033000F12C902F80E0B701BED79091B801960FB5
:100340009095953580F5892F6DEF62D77FEF780F07
:10035000892F63E05DD720E030E050E040E0542F8B
:10036000432F322F2227472B282B832E942EA52E66
:10037000BB24BA0188279927482DC801D0DE0F5F1A
:100380001F4F01351105A9F68091B8019091B9016F
:1003900001969093B9018093B8018F3F910511F0B8
:1003A00008F0A5CFA8CF9A3A58F49555892F63E065
:1003B0002FD7282F892F6DEF2BD7815070E0CCCF0E
:1003C0009A5A892F63E024D7782F892F6DEF20D791
:1003D0002FEF280F80E0C0CFB0DE8091B801909160
:1003E000B90163E070E053D7182F2FEF4FEF6FEF95
:1003F000812F90E094DE1D5F1135B8F38091B80134
:100400009091B90101969093B9018093B8014E97EC
:1004100008F06DCF70CFE090B801F090B901C7013E
:1004200087709927892BC1F410916300BFDE837018
:100430002FEF280F812F90E0820F911D27FD9A95B5
:100440008932910514F088E290E08E31910514F420
:100450008EE190E0809363002FE0E222FF24EF28FA
:10046000C1F410916200A2DE83702FEF280F812F5C
:1004700090E0820F911D27FD9A958031910514F02F
:100480008FE090E08830910514F488E090E080934C
:100490006200EFEBEE2ED12CC12C8091630010E0B6
:1004A00000E0C81660F48E2D6AEFB2D609E7080F97
:1004B0007DDE8F73801708F040C0081B10E08E2D82
:1004C00087FD8195F0906200282F082E000C330BD9
:1004D000F21613068CF0F81AF29470EFF72266DE2B
:1004E0008F718F1560F5F81A0F0D111D0F3F110553
:1004F00019F010F00FEF10E0402F0436110508F44A
:1005000044E6445620E0602FC60109DE3FEFC31ADF
:10051000D30AE39481E5C816D10409F0BECF8091D7
:10052000B8019091B90101969093B9018093B801F7
:100530008F3F910508F0DBCEDECE00E0BFCFF12C7F
:10054000D3CF8091B8019091B9018F719927892BF0
:1005500071F42CDE9091610091508370890F873186
:100560000CF086E186300CF486E080936100F12C7B
:10057000E12C00E09091B801093258F5990F802FD5
:1005800065E046D6890F87FF22C0880F8095869543
:10059000869510916100180F09DE8570282F210FB4
:1005A000253B50F11CE4120F01DE282F2370210F90
:1005B0003AEA320F48EC420F2452632FC701AFDDF5
:1005C0000F5F9FEFE91AF90A0135A1F6A8CF880F4E
:1005D000DECF802F67E01CD621EE280F892F63E045
:1005E00017D6820F87FF06C0880F8095182F1695A3
:1005F0001695D2CF880FFACF322F329536953770B5
:10060000822F90E063E070E00CD6959587959595E4
:100610008795482FD2CF8091660090916700A09176
:10062000680089839A83AB838091B8019091B90166
:10063000892B09F482DD6091B8017091B90190E0D5
:1006400080E070D720E030E040E250E4D2D63ED7E0
:10065000C62ED12CDE0114967D01613550F18E013C
:100660000F5F1F4FD8018D918D015601A81AB10857
:10067000C501B1E5AB16B10408F08A979C01285278
:1006800031092932310520F428E24AE562E847DDE4
:10069000C50103978135910520F08A978135910531
:1006A00020F420E040E060E03ADDE016F106D1F60B
:1006B00023C053E0952E9E012F5F3F4F5901F50156
:1006C00081915F018601081B11090135110528F48C
:1006D00028E24AE562E8C80122DDC80103978135B6
:1006E000910520F420E040E060E019DDEA14FB040D
:1006F00031F79A949110DFCF8091B8019091B901B0
:1007000001968E3E910528F49093B9018093B8012B
:10071000F2CD8BEC90E0F8CF10DD8091600081305D
:1007200009F49FC008F47AC0823009F4A5C0833070
:10073000C9F48091B2019091B301009711F0019733
:100740008BC034DD61E597D59093B7012FDD6EE165
:1007500092D59C5F9093B4011092B6011092B501AE
:100760001092600080916000833009F449C0C0900D
:10077000B401D12CF12CE12CFE2CED2CDC2CCC2462
:1007800010E000E08091B701F801E81BF109CF010A
:10079000F7FF03C0919581959109092E000CAA0BD2
:1007A000BB0BBA2FA92F982F88274091B5015091E4
:1007B000B60170E060E084179507A607B707D8F484
:1007C0004A015B01881A990AAA0ABB0AC501B40149
:1007D0002FEF30E040E050E035D5A70196017ED5FF
:1007E000CA01B9012FD5672F782F892F992720E0CB
:1007F00040E0C80194DC0F5F1F4F0135110511F671
:100800008091B8019091B90101969093B9018093BC
:10081000B801883B9B4008F06ACD6DCD2091B501B1
:100820003091B601265F3F4F3093B6012093B5015A
:100830008091B40190E0982F88272817390708F491
:1008400091CF9093B6018093B50181E080936000D1
:10085000ADDC90E088539F4F9093B3018093B20139
:1008600081CF8091B2019091B301009709F067CFD9
:1008700082E08093600076CF8091B5019091B601BF
:100880008B30910530F00A979093B6018093B501B3
:1008900069CF1092B6011092B50183E08093600099
:1008A00085DC90E0845D9E4FD7CF47DC7FDC8111F3
:1008B00057C004E711E0F801F12CE12C808181118F
:1008C00046C074DC61E5D7D4292F4AEA51E0692F8C
:1008D00070E0D8018C91882361F011968C9190E0A2
:1008E000861B970B97FF03C09195819591090397FC
:1008F000BCF1075F1F4F4017510759F7C70169E067
:1009000070E08FD48C010C581E4F81E0F801808379
:100910002183138212824ADC90E08C53964FD801D7
:1009200015969C938E93149741DC90E0F801978381
:1009300086833CDC6EE19FD4892F90E08A5B9F4FD9
:1009400069E170E0B8D4D80118966C9309C0BFEF84
:10095000EB1AFB0A399626E0E216F10409F0AECF55
:1009600004E711E0EAEAEE2EE1E0FE2ECC24CA9480
:10097000D12CD8018C91882391F012968D919C9165
:100980001397019613969C938E93129714962D911C
:100990003C9115978217930708F44FC01C92075F8C
:1009A0001F4FE016F10629F78091AA0181110CC0B2
:1009B0008091B0019091B101009709F45AC001975C
:1009C0009093B1018093B0018091AA01882339F1FD
:1009D0008091AE019091AF0101969093AF01809309
:1009E000AE01892B91F08091AC019091AD011092F4
:1009F000AF011092AE012091AB01820F911D27FD36
:100A00009A959093AD018093AC018091AC01909147
:100A1000AD018932910508F44BC01092AA01809172
:100A2000B8019091B90101969093B9018093B801F2
:100A300080369A4E08F05BCC5ECCF80186819781B7
:100A40000A969783868387FD809590E0880F991F8B
:100A5000880F991FB6012FD4D80118968C9118973A
:100A6000861B682F11968C91262F462F90E057DB1E
:100A700096CF11E01093AA0199DB80FF0FC010936D
:100A8000AB011092AD011092AC011092AF01109227
:100A9000AE018CDB90E0805D9A4892CF8FEF80931F
:100AA000AB0188E290E09093AD018093AC01EDCF73
:100AB00022E042E062E033DB2091AB018091AC01A7
:100AC0009091AD01821B910927FD93958932910583
:100AD00008F0A5CF20E040E060E021DBA0CF2DDBD7
:100AE000F12CE12CC70167E070E09BD32091B801A5
:100AF0003091B901820F931F182F87FD109556DB97
:100B0000897116951695180F113508F010E5012F0B
:100B100002950F70D12ED69449DB8F7321F4812F6B
:100B200086958695080F2D2D412F602FC701F7DA86
:100B3000EFEFEE1AFE0AF1E5EF16F10499F6809157
:100B4000B8019091B9010196DFCDF7DA10E000E02D
:100B5000C80163E070E065D32091B8013091B9011C
:100B6000820F931F282F87FD2095F22EF2946FE0BD
:100B7000F6221CDB8170282F2F0D422F4695622F05
:100B800066956695C801CBDA0F5F1F4F01351105D9
:100B9000F9F6D5CFD2DA8091620181111DC0809122
:100BA000630190916401009731F001979093640183
:100BB00080936301C4CF81E080936201F7DA68E239
:100BC0005AD3892F90E0909366018093650110922B
:100BD000680110926701B3CF813009F04DC0809158
:100BE0006701909168010196909368018093670175
:100BF000029768F0809165019091660110926801FA
:100C0000109267010196909366018093650180912F
:100C10006501909166018135910520F420E04EE157
:100C20006CE37DDA809165019091660189970CF4FF
:100C300086CF82E08093620110926901B7DA6AE0A0
:100C40001AD39C5F90936A0184E680936B010CE653
:100C500011E044E7E42E41E0F42E55E0D52EA6DA6B
:100C60006D2D09D3925009F491E0D8019D938D0127
:100C7000EA16FB06A1F763CF823009F060CFA0909F
:100C80006501B09066010CE611E024E7C22E21E078
:100C9000D22E38E2E32EF12CF80161918F01809180
:100CA0006901062E000C770B90E0BBD28A0D9B1DCC
:100CB00089329105FCF40197B701FDD289969C0118
:100CC000295231092832310540F460916B01462FD9
:100CD00046954695469520E022DAC016D106E1F603
:100CE0008091690190916A01891748F48F5F809320
:100CF000690125CF8135910514F38997DDCF809166
:100D00006B01843020F0835080936B0118CF1092D8
:100D100062014CDA90E088539F4F48CF6091B80150
:100D20007091B90190E080E0FDD320E030E84BEB1A
:100D300055E45FD36B017C0120E030E040E45FE3E9
:100D4000A3D4181634F4C12CD12C90E4E92E9FE3DF
:100D5000F92E20E030E040E45FE3C701B60149D35B
:100D60004B015C0120E030E040E85FE38DD41816D1
:100D700034F4812C912C80E8A82E8FE3B82E20E04B
:100D800030E040E252E4C501B40182D49FD36987C8
:100D900020E030E040EE51E4C501B40179D496D3AF
:100DA0006A8720E030E040EA50E4C501B40170D425
:100DB0008DD36B5F6B8720E030E040EF51E4C501DD
:100DC000B40166D420E030E040EA51E4AAD279D3FD
:100DD0007F876E8720E030E040E850E4C501B40131
:100DE00057D474D3162F611101C011E020E030E018
:100DF00040EF52E4C501B4014BD468D3693708F021
:100E000068E7312C212C9985892F90E0B0E0A0E093
:100E1000888B998BAA8BBB8B9A85892F90E0B0E049
:100E2000A0E08C8B9D8BAE8BBF8B9B85892F90E038
:100E3000B0E0A0E0888F998FAA8FBB8FA12FB0E080
:100E4000BD87AC87CD01092E000CAA0BBB0B8C8F84
:100E50009D8FAE8FBF8F862F90E0B0E0A0E088A37B
:100E600099A3AAA3BBA398E2B101921508F0D6C03A
:100E700069527109072E000C880B990B55D320E09D
:100E800030E04CE152E4B5D22DEC3CEC4CEC5EE3AE
:100E9000FFD39B01AC0160E070E080E89FE340D2AB
:100EA0006B017C01688979898A899B893DD3A70177
:100EB0009601EED30BD3062F6C897D898E899F898D
:100EC00033D3A7019601E4D301D36C83688D798D68
:100ED0008A8D9B8D29D3A7019601DAD3F7D2162FDD
:100EE000B101EE85FF856E1B7F0B77FF03C0719507
:100EF000619571092C853D85261737070CF477C05D
:100F0000072E000C880B990B0FD36B017C016C8DA5
:100F10007D8D8E8D9F8D08D39B01AC01C701B601DD
:100F200068D29B01AC0160E070E080E89FE3F8D1FB
:100F30006B017C0168A179A18AA19BA1F5D26D8387
:100F40007E838F839887602F70E090E080E0ECD202
:100F50002B013C012D813E814F815885C701B6018F
:100F600097D39B01AC01C301B201DBD1AFD2062FF5
:100F70002AE939E949E15FE36D817E818F819885B6
:100F800087D3A4D270E090E080E0CED2A701960192
:100F90007FD32B013C013C81632F70E090E080E027
:100FA000C3D29B01AC01C301B201BBD18FD26C8310
:100FB0002DEC3CEC4CEC5DE36D817E818F8198855E
:100FC00067D384D270E090E080E0AED2A7019601B2
:100FD0005FD36B017C01612F70E090E080E0A4D2D0
:100FE0009B01AC01C701B6019CD170D2162F212FF5
:100FF0004C81602FC10193D88FEF281A380A91E5F0
:101000002916310409F02FCF8091B8019091B901D0
:101010008037A7E19A0708F496CD6DC9645171092C
:10102000072E000C880B990B7FD26B017C0120E00E
:1010300030E0A901DAD187FF04C0F7FAF094F7F89D
:10104000F09420E030E040EA51E4C701B601D1D18C
:101050009B01AC0160E070E080E89FE361D16B012F
:101060007C0120E030E0A901C0D187FF03C0C12C82
:10107000D12C760120E030E040EA51E4C501B40112
:1010800007D3A701960104D321D20985060F20E0DA
:1010900030E040E251E4C501B401FAD2A701960163
:1010A000F7D214D2AA85A60FAC831B8519CF99D885
:1010B00022C9EDD79093C5018093C401E8D79093DE
:1010C000C5018093C401E9D79093C3018093C20105
:1010D000E4D79093C3018093C2012091C401309161
:1010E000C501243F3140B0F021E02093C101843F8D
:1010F000914098F081E08093C0018091BE01909171
:10110000BF0182309105A9F158F4009781F0019751
:10111000F1F008951092C101EACF1092C001EDCF15
:1011200083309105C9F1049709F43FC00895809177
:10113000C101811144C08091C001882309F43FC0DE
:1011400081E090E09093BF018093BE01089580916B
:10115000C0019091C101911105C0811130C082E0A0
:1011600090E0F0CF882359F11092BF011092BE0198
:1011700008958091C0019091C101911105C088230B
:10118000F1F083E090E0DECF811119C081E080931F
:10119000C60184E090E0D6CF8091C0019091C1015A
:1011A0009923D9F28111E0CF08958091C101811175
:1011B00004C09091C0019111E4CF8093C6010895BD
:1011C00016D871D781E090E018D89ED74B015C010A
:1011D0002B013C0199D76B017C01DC01CB01881903
:1011E0009909AA09BB090A97A105B10518F061DFA1
:1011F00046015701D701C60184199509A609B70907
:101200000A97A105B10530F302D826013701E2CFD4
:10121000002480FD060E660F11F08695D1F7802D13
:1012200008950024552704C0080E591F880F991FE0
:10123000009729F076956795B8F37105B9F7802D79
:10124000952F0895EE27FF27AA27BB2708C0A20FD6
:10125000B31FE41FF51F220F331F441F551F969520
:1012600087957795679598F37040A9F7009799F758
:10127000BD01CF010895991B79E004C0991F96170D
:1012800008F0961B881F7A95C9F780950895AA1BC8
:10129000BB1B51E107C0AA1FBB1FA617B70710F061
:1012A000A61BB70B881F991F5A95A9F78095909593
:1012B000BC01CD01089597FB072E16F4009406D0CB
:1012C00077FD08D0E4DF07FC05D03EF490958195CA
:1012D0009F4F0895709561957F4F0895A1E21A2E52
:1012E000AA1BBB1BFD010DC0AA1FBB1FEE1FFF1FCA
:1012F000A217B307E407F50720F0A21BB30BE40B1A
:10130000F50B661F771F881F991F1A9469F7609560
:101310007095809590959B01AC01BD01CF0108951A
:101320005058BB27AA270ED075C166D130F06BD1BB
:1013300020F031F49F3F11F41EF45BC10EF4E095F0
:10134000E7FB51C1E92F77D180F3BA176207730722
:101350008407950718F071F49EF58FC10EF4E0959F
:101360000B2EBA2FA02D0B01B90190010C01CA015F
:10137000A0011124FF27591B99F0593F50F4503E0A
:1013800068F11A16F040A22F232F342F4427585FFC
:10139000F3CF469537952795A795F0405395C9F714
:1013A0007EF41F16BA0B620B730B840BBAF09150CC
:1013B000A1F0FF0FBB1F661F771F881FC2F70EC06B
:1013C000BA0F621F731F841F48F48795779567953E
:1013D000B795F7959E3F08F0B3CF9395880F08F027
:1013E0009927EE0F979587950895D9D008F481E055
:1013F00008950CD00FC107D140F0FED030F021F499
:101400005F3F19F0F0C0511139C1F3C014D198F306
:101410009923C9F35523B1F3951B550BBB27AA2775
:1014200062177307840738F09F5F5F4F220F331FE7
:10143000441FAA1FA9F333D00E2E3AF0E0E830D0B3
:1014400091505040E695001CCAF729D0FE2F27D0B6
:10145000660F771F881FBB1F261737074807AB0784
:10146000B0E809F0BB0B802DBF01FF2793585F4FF9
:101470002AF09E3F510568F0B6C000C15F3FECF313
:10148000983EDCF3869577956795B795F7959F5FBE
:10149000C9F7880F911D9695879597F90895E1E012
:1014A000660F771F881FBB1F621773078407BA0771
:1014B00020F0621B730B840BBA0BEE1F88F7E095CC
:1014C000089504D06894B111D9C00895BCD088F0B3
:1014D0009F5790F0B92F9927B751A0F0D1F0660F20
:1014E000771F881F991F1AF0BA95C9F712C0B1303B
:1014F00081F0C3D0B1E00895C0C0672F782F88274E
:10150000B85F39F0B93FCCF3869577956795B39579
:10151000D9F73EF490958095709561957F4F8F4FE8
:101520009F4F0895E89409C097FB3EF490958095ED
:10153000709561957F4F8F4F9F4F9923A9F0F92F99
:1015400096E9BB279395F695879577956795B79517
:10155000F111F8CFFAF4BB0F11F460FF1BC06F5FFD
:101560007F4F8F4F9F4F16C0882311F096E911C00F
:10157000772321F09EE8872F762F05C0662371F030
:1015800096E8862F70E060E02AF09A95660F771F44
:10159000881FDAF7880F9695879597F90895990F20
:1015A0000008550FAA0BE0E8FEEF16161706E8072D
:1015B000F907C0F012161306E407F50798F0621B4E
:1015C000730B840B950B39F40A2661F0232B242B23
:1015D000252B21F408950A2609F4A140A6958FEF42
:1015E000811D811D089597F99F6780E870E060E094
:1015F00008959FEF80EC089500240A9416161706AC
:1016000018060906089500240A94121613061406F3
:1016100005060895092E0394000C11F4882352F056
:10162000BB0F40F4BF2B11F460FF04C06F5F7F4F0E
:101630008F4F9F4F089557FD9058440F551F59F0F5
:101640005F3F71F04795880F97FB991F61F09F3FAF
:1016500079F087950895121613061406551FF2CFD8
:101660004695F1DF08C0161617061806991FF1CF28
:1016700086957105610508940895E894BB2766274F
:101680007727CB0197F908958ADF08F48FEF089543
:101690000AD0C0CFB1DF28F0B6DF18F0952309F0EB
:1016A000A2CFA7CFEBCFC7DFA8F39923D9F3552358
:1016B000C9F3950F50E0551FAA27EE27FF27BB2738
:1016C00000240894679520F4E20FF31FB41F0A1E4C
:1016D000220F331F441FAA1F6695A9F7779530F490
:1016E000F30FB41F0A1E121E08F46395330F441F34
:1016F000AA1F221F769599F7879520F4B40F0A1E2A
:10170000121E631F440FAA1F221F331F8695A9F7BD
:10171000862F712D602D11249F5750408AF0E1F0E3
:1017200088234AF0EE0FFF1FBB1F661F771F881F1D
:1017300091505040A9F79E3F510570F054CF9ECF75
:101740005F3FECF3983EDCF3869577956795B79508
:10175000F795E7959F5FC1F7FE2B880F911D969532
:0A176000879597F90895F894FFCFDC
:0A176A00030A081EE1AC000E1C008B
:00000001FF
