:100000000EC01DC01CC01BC01AC019C018C017C02C
:1000100016C015C049C013C012C011C010C01124B1
:100020001FBECFE5D2E0DEBFCDBF21E0A0E6B0E04D
:1000300001C01D92A236B207E1F74AD180C1E0CFDC
:10004000369A3699FECF84B195B1089580916000BB
:10005000811106C017B887E886B981E080936000F7
:100060000895F4DF87B1807F87B9EACFEFDF87B1EA
:10007000807F816087B9E4CFE9DF87B1807F8260CC
:1000800087B9DECFE3DF87B1807F836087B9D8CFC0
:10009000F89482E08ABD83E083BF89EF89BD89B788
:1000A000806189BF789408951F920F920FB60F92C6
:1000B00011248F939F93AF93BF9380916100909190
:1000C0006200A0916300B09164000196A11DB11D72
:1000D0008093610090936200A0936300B0936400EA
:1000E000BF91AF919F918F910F900FBE0F901F9076
:1000F0001895F8946091610070916200809163009E
:100100009091640078940895362F8135910548F4D4
:1001100063E070E003D1FC01EB59FF4F4083318372
:1001200022830895E5E6F0E0119281E0E835F807D2
:10013000D9F70895B89AF6CFF894E5E6F0E028E507
:1001400031E0919188E097FF19C0C09A000000004B
:100150000000000000000000C09800000000000047
:10016000990F815081F72E173F0759F778948FEE3A
:1001700090E00197F1F700C000000895C09A0000D8
:1001800000000000C0980000000000000000000017
:1001900000000000E5CFC6DF10925901109258010F
:1001A0000895C8DF10925D0110925C01089590934C
:1001B0005D0180935C01089580915C0190915D01E7
:1001C00020915A0130915B018217930771F01092D0
:1001D00059011092580190935B0180935A01019745
:1001E00021F520E040E06FEF0BC00197F1F4809122
:1001F00058019091590120E040E060E0C29788F3F7
:1002000090E080E081DF8091580190915901019642
:100210008436910528F490935901809358018CCF2E
:100220001092590110925801FACFB5DFF8CF24DFB0
:1002300090935F0180935E011FDF90935F01809335
:100240005E01853F914018F081E090E0B0CF90E0F2
:1002500080E0FCCF87B3866087BB80E18DB90895CD
:100260008FB980E48EB98BE18DB995E09A95F1F75D
:100270000000769BF9CF08950F931F93CF93DF93E0
:10028000EC018C01060F171FC017D10729F4DF916D
:10029000CF911F910F9108958991E2DFF5CFCF9310
:1002A000DF93D82FC62F8FEFDBDF89EFD9DF8D2FBC
:1002B000D7DF8C2FD5DF87EED3DF83ECD1DF8FE361
:1002C0009CE90197F1F700C00000DF91CF910895FC
:1002D00068DFDEDE0EDF4B015C012B013C0109DF34
:1002E0006B017C01DC01CB0188199909AA09BB09C2
:1002F00084369105A105B10518F099DF4601570133
:10030000D701C60184199509A609B7090A97A1055D
:10031000B10528F351DF26013701E1CF002455272D
:1003200004C0080E591F880F991F009729F0769571
:100330006795B8F37105B9F7802D952F0895F89456
:02034000FFCFED
:00000001FF
