:100000000EC028C027C026C025C024C023C022C0DF
:1000100021C020C054C01EC01DC01CC01BC0112464
:100020001FBECFE5D2E0DEBFCDBF10E0A0E6B0E05E
:10003000E0EBFAE002C005900D92A836B107D9F7BF
:1000400021E0A8E6B0E001C01D92AC36B207E1F7AE
:10005000A4D32CC5D5CF369A3699FECF84B195B1AD
:10006000089580916800811106C017B887E886B9A5
:1000700081E0809368000895F4DF87B1807F87B9BD
:10008000EACFEFDF87B1807F816087B9E4CFE9DF16
:1000900087B1807F826087B9DECFE3DF87B1807F61
:1000A000836087B9D8CFF89482E08ABD83E083BFAC
:1000B00089EF89BD89B7806189BF789408951F92BF
:1000C0000F920FB60F9211248F939F93AF93BF930C
:1000D0008091690090916A00A0916B00B0916C00D2
:1000E0000196A11DB11D8093690090936A00A093B1
:1000F0006B00B0936C00BF91AF919F918F910F9067
:100100000FBE0F901F901895F89460916900709140
:100110006A0080916B0090916C0078940895362F5E
:100120008135910548F463E070E066D3FC01E35942
:10013000FF4F4083318322830895EDE6F0E0119272
:1001400081E0E036F807D9F70895B89AF6CFF89429
:10015000EDE6F0E020E631E0919188E097FF19C0EC
:10016000C09A000000000000000000000000C098DD
:10017000000000000000990F815081F72E173F0703
:1001800059F778948FEE90E00197F1F700C00000E6
:100190000895C09A000000000000C0980000000010
:1001A00000000000000000000000E5CF8091630027
:1001B000909164009C013695322F22273795279520
:1001C00028273927C901892F992786952827392774
:1001D000922F88278227932790936400809363004F
:1001E0000895ABDF10926101109260010895ADDFB8
:1001F00010926501109264010895909365018093B7
:1002000064010895809164019091650108958F9231
:100210009F92AF92BF92CF92DF92EF92FF920F9395
:100220001F93CF93DF9300D01F92CDB7DEB780919D
:100230006401909165012091620130916301821700
:100240009307B1F0109261011092600190936301E5
:10025000809362018330910509F4EAC008F03FC041
:1002600081309105B1F0029709F48AC0BADF27C046
:100270008330910509F4DCC090F58130910599F740
:10028000809160019091610120E040E060E0C297C0
:1002900018F420E040E06FEF90E080E040DF8091D4
:1002A00060019091610101969093610180936001DA
:1002B0008436910520F010926101109260010F9038
:1002C0000F900F90DF91CF911F910F91FF90EF90C2
:1002D000DF90CF90BF90AF909F908F9038CF8530B8
:1002E000910509F45AC108F4C2C0069709F0BECFBF
:1002F0008091650090916600A091670089839A8340
:10030000AB83609160017091610190E080E040D327
:1003100020E030E040E250E4A7D20ED3C62ED12C2C
:10032000CE0104967C01613508F4A1C18E010F5FF6
:100330001F4FF80181918F015601A81AB108C5011C
:10034000F1E5AF16B10408F08A979C0128523109F3
:100350002932310520F428E24AE562E8E0DEC501F1
:1003600003978135910520F08A978135910520F416
:1003700020E040E060E0D3DEE016F106D1F699C15E
:1003800010E000E0B1E5EB2EF12C902F80E0B701FA
:1003900058D290916001960F9095953580F5892FF0
:1003A0006DEF21D27FEF780F892F63E01CD220E020
:1003B00030E050E040E0542F432F322F2227472BCC
:1003C000282B832E942EA52EBB24BA01882799278B
:1003D000482DC801A4DE0F5F1F4F01351105A9F696
:1003E00080916001909161010196909361018093E9
:1003F00060018F3F910511F008F05DCF60CF9A3A10
:1004000058F49555892F63E0EED1282F892F6DEF91
:10041000EAD1815070E0CCCF9A5A892F63E0E3D1C2
:10042000782F892F6DEFDFD12FEF280F80E0C0CF1D
:1004300084DE809160019091610163E070E0EDD114
:10044000182F2FEF4FEF6FEF812F90E068DE1D5FC9
:100450001135B8F3809160019091610101969093FC
:100460006101809360014E9708F025CF28CFE0907E
:100470006001F0906101C70187709927892BC1F451
:100480001091620093DE83702FEF280F812F90E090
:10049000820F911D27FD9A958932910514F088E20B
:1004A00090E08E31910514F48EE190E0809362002B
:1004B0002FE0E222FF24EF28C1F41091610076DEE4
:1004C00083702FEF280F812F90E0820F911D27FD61
:1004D0009A958031910514F08FE090E08830910575
:1004E00014F488E090E0809361006FEBE62ED12C4D
:1004F000C12C8091620010E000E0C81660F48E2DDF
:100500006AEF71D109E7080F51DE8F73801708F089
:1005100040C0081B10E08E2D87FD8195F090610092
:10052000282F082E000C330BF21613068CF0F81A45
:10053000F29450EFF5223ADE8F718F1560F5F81ABC
:100540000F0D111D0F3F110519F010F00FEF10E006
:10055000402F0436110508F444E6445620E0602F8D
:10056000C601DDDD8FEFC81AD80AE39491E5C916FC
:10057000D10409F0BECF8091600190916101019694
:1005800090936101809360018F3F910508F093CEB5
:1005900096CE00E0BFCFF12CD3CF80916001909137
:1005A00061018F719927892B71F400DE90916000B1
:1005B00091508370890F87310CF086E186300CF4FE
:1005C00086E080936000F12CE12C00E090916001C6
:1005D000093258F5990F802F65E005D1890F87FF03
:1005E00022C0880F80958695869510916000180F1F
:1005F000DDDD8570282F210F253B50F11CE4120F03
:10060000D5DD282F2370210F3AEA320F48EC420F34
:100610002452632FC70183DD0F5FEFEFEE1AFE0A4E
:100620000135A1F6A8CF880FDECF802F67E0DBD0A1
:1006300021EE280F892F63E0D6D0820F87FF06C0F6
:10064000880F8095182F16951695D2CF880FFACF60
:10065000322F329536953770822F90E063E070E04C
:10066000CBD09595879595958795482FD2CF83E0E8
:10067000982ECE0101965C01F50181915F01860102
:10068000081B11090135110528F428E24AE562E842
:10069000C80145DDC80103978135910520F420E0AC
:1006A00040E060E03CDDEA14FB0431F79A949110DD
:1006B000E0CF809160019091610101968E3E91059D
:1006C00028F49093610180936001F9CD8BEC90E068
:1006D000F8CFDDDC9093690180936801D8DC9093BA
:1006E000690180936801853F914068F080916601BF
:1006F00090916701853F914030F484DD863091050B
:1007000058F401967ADD8091680190916901909387
:10071000670180936601089590E080E0F3CF87B38E
:10072000866087BB80E18DB908958FB980E48EB96A
:100730008BE18DB995E09A95F1F70000769BF9CFA2
:1007400008950F931F93CF93DF93EC018C01060F55
:10075000171FC017D10729F4DF91CF911F910F9177
:1007600008958991E2DFF5CFCF93DF93D82FC62F7D
:100770008FEFDBDF89EFD9DF8D2FD7DF8C2FD5DF30
:1007800087EED3DF83ECD1DF8FE39CE90197F1F7AC
:1007900000C00000DF91CF91089529DD84DCB4DC36
:1007A0004B015C012B013C01AFDC6B017C01DC01E6
:1007B000CB0188199909AA09BB0984369105A105BD
:1007C000B10518F086DF46015701D701C60184192B
:1007D0009509A609B7090A97A105B10528F317DD00
:1007E00026013701E1CF002480FD060E660F11F0CF
:1007F0008695D1F7802D08950024552704C0080E52
:10080000591F880F991F009729F076956795B8F3BF
:100810007105B9F7802D952F0895AA1BBB1B51E1D7
:1008200007C0AA1FBB1FA617B70710F0A61BB70B60
:10083000881F991F5A95A9F780959095BC01CD0105
:10084000089597FB072E16F4009406D077FD08D084
:10085000E4DF07FC05D03EF4909581959F4F089505
:10086000709561957F4F08950CD0E6C0DED040F0C2
:10087000D5D030F021F45F3F19F0C7C0511110C13D
:10088000CAC0EBD098F39923C9F35523B1F3951B54
:10089000550BBB27AA2762177307840738F09F5FA1
:1008A0005F4F220F331F441FAA1FA9F333D00E2E10
:1008B0003AF0E0E830D091505040E695001CCAF77D
:1008C00029D0FE2F27D0660F771F881FBB1F261742
:1008D00037074807AB07B0E809F0BB0B802DBF0115
:1008E000FF2793585F4F2AF09E3F510568F08DC057
:1008F000D7C05F3FECF3983EDCF38695779567951C
:10090000B795F7959F5FC9F7880F911D96958795C5
:1009100097F90895E1E0660F771F881FBB1F6217E4
:1009200073078407BA0720F0621B730B840BBA0BA2
:10093000EE1F88F7E095089598D088F09F5790F0C3
:10094000B92F9927B751A0F0D1F0660F771F881FF4
:10095000991F1AF0BA95C9F712C0B13081F09FD033
:10096000B1E008959CC0672F782F8827B85F39F0D1
:10097000B93FCCF3869577956795B395D9F73EF453
:1009800090958095709561957F4F8F4F9F4F0895FB
:10099000E89409C097FB3EF4909580957095619519
:1009A0007F4F8F4F9F4F9923A9F0F92F96E9BB27CF
:1009B0009395F695879577956795B795F111F8CF4B
:1009C000FAF4BB0F11F460FF1BC06F5F7F4F8F4FB6
:1009D0009F4F16C0882311F096E911C0772321F0AC
:1009E0009EE8872F762F05C0662371F096E8862F44
:1009F00070E060E02AF09A95660F771F881FDAF79B
:100A0000880F9695879597F9089597F99F6780E8DD
:100A100070E060E008959FEF80EC089500240A9450
:100A20001616170618060906089500240A941216C9
:100A30001306140605060895092E0394000C11F4FC
:100A4000882352F0BB0F40F4BF2B11F460FF04C0A9
:100A50006F5F7F4F8F4F9F4F089557FD9058440F02
:100A6000551F59F05F3F71F04795880F97FB991F0D
:100A700061F09F3F79F087950895121613061406CA
:100A8000551FF2CF4695F1DF08C016161706180657
:100A9000991FF1CF86957105610508940895E89432
:100AA000BB2766277727CB0197F90895F894FFCFE6
:080AB0000A081EE1AC000E1C57
:00000001FF
